{
  "contractName": "Admin",
  "abi": [
    {
      "inputs": [],
      "payable": false,
      "stateMutability": "nonpayable",
      "type": "constructor"
    },
    {
      "anonymous": false,
      "inputs": [
        {
          "indexed": true,
          "name": "Authorizer",
          "type": "address"
        },
        {
          "indexed": true,
          "name": "NewAdmin",
          "type": "address"
        }
      ],
      "name": "AdminAdded",
      "type": "event"
    },
    {
      "anonymous": false,
      "inputs": [
        {
          "indexed": true,
          "name": "Authorizer",
          "type": "address"
        },
        {
          "indexed": true,
          "name": "RemovedAdmin",
          "type": "address"
        }
      ],
      "name": "AdminRemoved",
      "type": "event"
    },
    {
      "constant": true,
      "inputs": [],
      "name": "creator",
      "outputs": [
        {
          "name": "",
          "type": "address"
        }
      ],
      "payable": false,
      "stateMutability": "view",
      "type": "function"
    },
    {
      "constant": true,
      "inputs": [],
      "name": "isCreator",
      "outputs": [
        {
          "name": "",
          "type": "bool"
        }
      ],
      "payable": false,
      "stateMutability": "view",
      "type": "function"
    },
    {
      "constant": false,
      "inputs": [
        {
          "name": "newAdmin",
          "type": "address"
        }
      ],
      "name": "addAdmin",
      "outputs": [],
      "payable": false,
      "stateMutability": "nonpayable",
      "type": "function"
    },
    {
      "constant": false,
      "inputs": [
        {
          "name": "adminAddr",
          "type": "address"
        }
      ],
      "name": "removeAdmin",
      "outputs": [],
      "payable": false,
      "stateMutability": "nonpayable",
      "type": "function"
    },
    {
      "constant": true,
      "inputs": [
        {
          "name": "addr",
          "type": "address"
        }
      ],
      "name": "isAdmin",
      "outputs": [
        {
          "name": "",
          "type": "bool"
        }
      ],
      "payable": false,
      "stateMutability": "view",
      "type": "function"
    },
    {
      "constant": true,
      "inputs": [],
      "name": "isAdmin",
      "outputs": [
        {
          "name": "",
          "type": "bool"
        }
      ],
      "payable": false,
      "stateMutability": "view",
      "type": "function"
    }
  ],
  "bytecode": "0x608060405234801561001057600080fd5b5060016000803373ffffffffffffffffffffffffffffffffffffffff1673ffffffffffffffffffffffffffffffffffffffff16815260200190815260200160002060006101000a81548160ff02191690831515021790555033600160006101000a81548173ffffffffffffffffffffffffffffffffffffffff021916908373ffffffffffffffffffffffffffffffffffffffff160217905550610595806100b86000396000f3fe608060405260043610610078576000357c0100000000000000000000000000000000000000000000000000000000900463ffffffff16806302d05d3f1461007d5780631785f53c146100d457806324d7806c14610125578063704802751461018e578063b6db75a0146101df578063ee92d4841461020e575b600080fd5b34801561008957600080fd5b5061009261023d565b604051808273ffffffffffffffffffffffffffffffffffffffff1673ffffffffffffffffffffffffffffffffffffffff16815260200191505060405180910390f35b3480156100e057600080fd5b50610123600480360360208110156100f757600080fd5b81019080803573ffffffffffffffffffffffffffffffffffffffff169060200190929190505050610267565b005b34801561013157600080fd5b506101746004803603602081101561014857600080fd5b81019080803573ffffffffffffffffffffffffffffffffffffffff169060200190929190505050610397565b604051808215151515815260200191505060405180910390f35b34801561019a57600080fd5b506101dd600480360360208110156101b157600080fd5b81019080803573ffffffffffffffffffffffffffffffffffffffff1690602001909291905050506103ec565b005b3480156101eb57600080fd5b506101f461051c565b604051808215151515815260200191505060405180910390f35b34801561021a57600080fd5b5061022361052c565b604051808215151515815260200191505060405180910390f35b6000600160009054906101000a900473ffffffffffffffffffffffffffffffffffffffff16905090565b61026f61051c565b15156102e3576040517f08c379a00000000000000000000000000000000000000000000000000000000081526004018080602001828103825260138152602001807f43616c6c6572206973206e6f742041646d696e0000000000000000000000000081525060200191505060405180910390fd5b60008060008373ffffffffffffffffffffffffffffffffffffffff1673ffffffffffffffffffffffffffffffffffffffff16815260200190815260200160002060006101000a81548160ff0219169083151502179055508073ffffffffffffffffffffffffffffffffffffffff163373ffffffffffffffffffffffffffffffffffffffff167fdb9d5d31320daf5bc7181d565b6da4d12e30f0f4d5aa324a992426c14a1d19ce60405160405180910390a350565b60008060008373ffffffffffffffffffffffffffffffffffffffff1673ffffffffffffffffffffffffffffffffffffffff16815260200190815260200160002060009054906101000a900460ff169050919050565b6103f461051c565b1515610468576040517f08c379a00000000000000000000000000000000000000000000000000000000081526004018080602001828103825260138152602001807f43616c6c6572206973206e6f742041646d696e0000000000000000000000000081525060200191505060405180910390fd5b60016000808373ffffffffffffffffffffffffffffffffffffffff1673ffffffffffffffffffffffffffffffffffffffff16815260200190815260200160002060006101000a81548160ff0219169083151502179055508073ffffffffffffffffffffffffffffffffffffffff163373ffffffffffffffffffffffffffffffffffffffff167fbf3f493c772c8c283fd124432c2d0f539ab343faa04258fe88e52912d36b102b60405160405180910390a350565b600061052733610397565b905090565b600061053661023d565b73ffffffffffffffffffffffffffffffffffffffff163373ffffffffffffffffffffffffffffffffffffffff161490509056fea165627a7a72305820225e9e7bbc181516d66cda31ede9c2d1a0e139388b7747ffe8bbe81c8bd3c7840029",
  "source": "pragma solidity ^0.5.0;\r\n\r\ncontract Admin {\r\n    mapping(address => bool) private _admins;\r\n    address payable _creator;\r\n\r\n    event AdminAdded(address indexed Authorizer, address indexed NewAdmin);\r\n    event AdminRemoved(\r\n        address indexed Authorizer,\r\n        address indexed RemovedAdmin\r\n    );\r\n\r\n    constructor() public {\r\n        _admins[msg.sender] = true;\r\n        _creator = msg.sender;\r\n    }\r\n\r\n    function creator() public view returns (address payable) {\r\n        return _creator;\r\n    }\r\n\r\n    function isCreator() public view returns (bool) {\r\n        return msg.sender == creator();\r\n    }\r\n\r\n    function addAdmin(address newAdmin) public onlyAdmin {\r\n        _admins[newAdmin] = true;\r\n        emit AdminAdded(msg.sender, newAdmin);\r\n    }\r\n\r\n    function removeAdmin(address adminAddr) public onlyAdmin {\r\n        _admins[adminAddr] = false;\r\n        emit AdminRemoved(msg.sender, adminAddr);\r\n    }\r\n\r\n    function isAdmin(address addr) public view returns (bool) {\r\n        return _admins[addr];\r\n    }\r\n\r\n    function isAdmin() public view returns (bool) {\r\n        return isAdmin(msg.sender);\r\n    }\r\n\r\n    modifier onlyAdmin() {\r\n        require(isAdmin(), \"Caller is not Admin\");\r\n        _;\r\n    }\r\n}\r\n",
  "sourcePath": "/home/kyusang/Desktop/ContractMinter/MinterV2/contracts/Admin.sol",
  "compiler": {
    "name": "solc",
    "version": "0.5.0+commit.1d4f565a.Emscripten.clang"
  },
  "schemaVersion": "3.4.7",
  "updatedAt": "2022-05-22T20:53:48.635Z",
  "devdoc": {
    "methods": {}
  },
  "userdoc": {
    "methods": {}
  }
}