{
  "contractName": "controller",
  "abi": [
    {
      "constant": true,
      "inputs": [],
      "name": "creator",
      "outputs": [
        {
          "name": "",
          "type": "address"
        }
      ],
      "payable": false,
      "stateMutability": "view",
      "type": "function"
    },
    {
      "constant": false,
      "inputs": [
        {
          "name": "adminAddr",
          "type": "address"
        }
      ],
      "name": "removeAdmin",
      "outputs": [],
      "payable": false,
      "stateMutability": "nonpayable",
      "type": "function"
    },
    {
      "constant": true,
      "inputs": [
        {
          "name": "addr",
          "type": "address"
        }
      ],
      "name": "isAdmin",
      "outputs": [
        {
          "name": "",
          "type": "bool"
        }
      ],
      "payable": false,
      "stateMutability": "view",
      "type": "function"
    },
    {
      "constant": false,
      "inputs": [
        {
          "name": "newAdmin",
          "type": "address"
        }
      ],
      "name": "addAdmin",
      "outputs": [],
      "payable": false,
      "stateMutability": "nonpayable",
      "type": "function"
    },
    {
      "constant": true,
      "inputs": [],
      "name": "isAdmin",
      "outputs": [
        {
          "name": "",
          "type": "bool"
        }
      ],
      "payable": false,
      "stateMutability": "view",
      "type": "function"
    },
    {
      "constant": true,
      "inputs": [],
      "name": "isCreator",
      "outputs": [
        {
          "name": "",
          "type": "bool"
        }
      ],
      "payable": false,
      "stateMutability": "view",
      "type": "function"
    },
    {
      "inputs": [],
      "payable": true,
      "stateMutability": "payable",
      "type": "constructor"
    },
    {
      "payable": true,
      "stateMutability": "payable",
      "type": "fallback"
    },
    {
      "anonymous": false,
      "inputs": [
        {
          "indexed": false,
          "name": "amount",
          "type": "uint256"
        }
      ],
      "name": "Deposit",
      "type": "event"
    },
    {
      "anonymous": false,
      "inputs": [
        {
          "indexed": false,
          "name": "amount",
          "type": "uint256"
        }
      ],
      "name": "Withdrawal",
      "type": "event"
    },
    {
      "anonymous": false,
      "inputs": [],
      "name": "Minted",
      "type": "event"
    },
    {
      "anonymous": false,
      "inputs": [
        {
          "indexed": true,
          "name": "Authorizer",
          "type": "address"
        },
        {
          "indexed": true,
          "name": "NewAdmin",
          "type": "address"
        }
      ],
      "name": "AdminAdded",
      "type": "event"
    },
    {
      "anonymous": false,
      "inputs": [
        {
          "indexed": true,
          "name": "Authorizer",
          "type": "address"
        },
        {
          "indexed": true,
          "name": "RemovedAdmin",
          "type": "address"
        }
      ],
      "name": "AdminRemoved",
      "type": "event"
    },
    {
      "constant": false,
      "inputs": [
        {
          "name": "timestamp",
          "type": "uint256"
        },
        {
          "name": "transferAmt",
          "type": "uint256"
        },
        {
          "name": "contractAddr",
          "type": "address"
        },
        {
          "name": "value",
          "type": "uint256"
        },
        {
          "name": "data",
          "type": "bytes"
        },
        {
          "name": "num",
          "type": "uint256"
        }
      ],
      "name": "mintTime",
      "outputs": [],
      "payable": true,
      "stateMutability": "payable",
      "type": "function"
    },
    {
      "constant": false,
      "inputs": [
        {
          "name": "blockNumber",
          "type": "uint256"
        },
        {
          "name": "transferAmt",
          "type": "uint256"
        },
        {
          "name": "contractAddr",
          "type": "address"
        },
        {
          "name": "value",
          "type": "uint256"
        },
        {
          "name": "data",
          "type": "bytes"
        },
        {
          "name": "num",
          "type": "uint256"
        }
      ],
      "name": "mintBlock",
      "outputs": [],
      "payable": true,
      "stateMutability": "payable",
      "type": "function"
    },
    {
      "constant": false,
      "inputs": [
        {
          "name": "idx",
          "type": "uint256"
        },
        {
          "name": "transferAmt",
          "type": "uint256"
        },
        {
          "name": "contractAddr",
          "type": "address"
        },
        {
          "name": "value",
          "type": "uint256"
        },
        {
          "name": "data",
          "type": "bytes"
        }
      ],
      "name": "call",
      "outputs": [],
      "payable": true,
      "stateMutability": "payable",
      "type": "function"
    },
    {
      "constant": true,
      "inputs": [],
      "name": "getBalance",
      "outputs": [
        {
          "name": "",
          "type": "uint256"
        }
      ],
      "payable": false,
      "stateMutability": "view",
      "type": "function"
    },
    {
      "constant": true,
      "inputs": [],
      "name": "getMinters",
      "outputs": [
        {
          "name": "",
          "type": "address[]"
        }
      ],
      "payable": false,
      "stateMutability": "view",
      "type": "function"
    },
    {
      "constant": false,
      "inputs": [],
      "name": "deposit",
      "outputs": [],
      "payable": true,
      "stateMutability": "payable",
      "type": "function"
    },
    {
      "constant": false,
      "inputs": [],
      "name": "withdraw",
      "outputs": [],
      "payable": false,
      "stateMutability": "nonpayable",
      "type": "function"
    },
    {
      "constant": false,
      "inputs": [
        {
          "name": "idx",
          "type": "uint256[]"
        },
        {
          "name": "balance",
          "type": "uint256[]"
        }
      ],
      "name": "depositMinters",
      "outputs": [],
      "payable": true,
      "stateMutability": "payable",
      "type": "function"
    },
    {
      "constant": false,
      "inputs": [
        {
          "name": "idx",
          "type": "uint256"
        },
        {
          "name": "balance",
          "type": "uint256"
        }
      ],
      "name": "depositMinters",
      "outputs": [],
      "payable": true,
      "stateMutability": "payable",
      "type": "function"
    },
    {
      "constant": false,
      "inputs": [
        {
          "name": "idx",
          "type": "uint256"
        }
      ],
      "name": "withdrawMinters",
      "outputs": [],
      "payable": false,
      "stateMutability": "nonpayable",
      "type": "function"
    },
    {
      "constant": false,
      "inputs": [],
      "name": "withdrawMinters",
      "outputs": [],
      "payable": false,
      "stateMutability": "nonpayable",
      "type": "function"
    },
    {
      "constant": false,
      "inputs": [
        {
          "name": "idx",
          "type": "uint256"
        }
      ],
      "name": "suicideMinters",
      "outputs": [],
      "payable": false,
      "stateMutability": "nonpayable",
      "type": "function"
    },
    {
      "constant": false,
      "inputs": [],
      "name": "suicideMinters",
      "outputs": [],
      "payable": false,
      "stateMutability": "nonpayable",
      "type": "function"
    },
    {
      "constant": false,
      "inputs": [],
      "name": "SUICIDE",
      "outputs": [],
      "payable": false,
      "stateMutability": "nonpayable",
      "type": "function"
    }
  ],
  "bytecode": "0x6080604052670de0b6b3a764000060035560016000803373ffffffffffffffffffffffffffffffffffffffff1673ffffffffffffffffffffffffffffffffffffffff16815260200190815260200160002060006101000a81548160ff02191690831515021790555033600160006101000a81548173ffffffffffffffffffffffffffffffffffffffff021916908373ffffffffffffffffffffffffffffffffffffffff160217905550613115806100b76000396000f3fe60806040526004361062000127576000357c0100000000000000000000000000000000000000000000000000000000900463ffffffff16806302d05d3f1462000129578063042fd01a146200018357806312065fe014620001c25780631785f53c14620001f057806320dbc44f146200024557806324d7806c146200025f5780633ccfd60b14620002cc5780635130c12714620002e65780636b32810b146200032557806370480275146200039657806371f1c7b214620003eb5780637951ae121462000405578063913af9ea146200041f57806398f46b6014620004e6578063a13b857f14620005bd578063b61829b11462000684578063b6db75a01462000783578063d0e30db014620007b5578063ee92d48414620007c1578063f04653d914620007f3575b005b3480156200013657600080fd5b50620001416200082e565b604051808273ffffffffffffffffffffffffffffffffffffffff1673ffffffffffffffffffffffffffffffffffffffff16815260200191505060405180910390f35b3480156200019057600080fd5b50620001c060048036036020811015620001a957600080fd5b810190808035906020019092919050505062000858565b005b348015620001cf57600080fd5b50620001da620008e5565b6040518082815260200191505060405180910390f35b348015620001fd57600080fd5b5062000243600480360360208110156200021657600080fd5b81019080803573ffffffffffffffffffffffffffffffffffffffff16906020019092919050505062000904565b005b3480156200025257600080fd5b506200025d62000a37565b005b3480156200026c57600080fd5b50620002b2600480360360208110156200028557600080fd5b81019080803573ffffffffffffffffffffffffffffffffffffffff16906020019092919050505062000ae6565b604051808215151515815260200191505060405180910390f35b348015620002d957600080fd5b50620002e462000b3b565b005b348015620002f357600080fd5b5062000323600480360360208110156200030c57600080fd5b810190808035906020019092919050505062000c59565b005b3480156200033257600080fd5b506200033d62000ce6565b6040518080602001828103825283818151815260200191508051906020019060200280838360005b838110156200038257808201518184015260208101905062000365565b505050509050019250505060405180910390f35b348015620003a357600080fd5b50620003e960048036036020811015620003bc57600080fd5b81019080803573ffffffffffffffffffffffffffffffffffffffff16906020019092919050505062000d76565b005b348015620003f857600080fd5b506200040362000ea9565b005b3480156200041257600080fd5b506200041d62000f4f565b005b620004e4600480360360c08110156200043757600080fd5b810190808035906020019092919080359060200190929190803573ffffffffffffffffffffffffffffffffffffffff16906020019092919080359060200190929190803590602001906401000000008111156200049357600080fd5b820183602082011115620004a657600080fd5b80359060200191846001830284011164010000000083111715620004c957600080fd5b90919293919293908035906020019092919050505062000ffe565b005b620005bb60048036036040811015620004fe57600080fd5b81019080803590602001906401000000008111156200051c57600080fd5b8201836020820111156200052f57600080fd5b803590602001918460208302840111640100000000831117156200055257600080fd5b9091929391929390803590602001906401000000008111156200057457600080fd5b8201836020820111156200058757600080fd5b80359060200191846020830284011164010000000083111715620005aa57600080fd5b909192939192939050505062001152565b005b62000682600480360360c0811015620005d557600080fd5b810190808035906020019092919080359060200190929190803573ffffffffffffffffffffffffffffffffffffffff16906020019092919080359060200190929190803590602001906401000000008111156200063157600080fd5b8201836020820111156200064457600080fd5b803590602001918460018302840111640100000000831117156200066757600080fd5b9091929391929390803590602001909291905050506200130d565b005b62000781600480360360a08110156200069c57600080fd5b810190808035906020019092919080359060200190929190803573ffffffffffffffffffffffffffffffffffffffff1690602001909291908035906020019092919080359060200190640100000000811115620006f857600080fd5b8201836020820111156200070b57600080fd5b803590602001918460018302840111640100000000831117156200072e57600080fd5b91908080601f016020809104026020016040519081016040528093929190818152602001838380828437600081840152601f19601f82011690508083019250505050505050919291929050505062001461565b005b3480156200079057600080fd5b506200079b620015a4565b604051808215151515815260200191505060405180910390f35b620007bf620015b6565b005b348015620007ce57600080fd5b50620007d9620015ef565b604051808215151515815260200191505060405180910390f35b6200082c600480360360408110156200080b57600080fd5b8101908080359060200190929190803590602001909291905050506200162e565b005b6000600160009054906101000a900473ffffffffffffffffffffffffffffffffffffffff16905090565b62000862620015a4565b1515620008d7576040517f08c379a00000000000000000000000000000000000000000000000000000000081526004018080602001828103825260138152602001807f43616c6c6572206973206e6f742041646d696e0000000000000000000000000081525060200191505060405180910390fd5b620008e2816200163e565b50565b60003073ffffffffffffffffffffffffffffffffffffffff1631905090565b6200090e620015a4565b151562000983576040517f08c379a00000000000000000000000000000000000000000000000000000000081526004018080602001828103825260138152602001807f43616c6c6572206973206e6f742041646d696e0000000000000000000000000081525060200191505060405180910390fd5b60008060008373ffffffffffffffffffffffffffffffffffffffff1673ffffffffffffffffffffffffffffffffffffffff16815260200190815260200160002060006101000a81548160ff0219169083151502179055508073ffffffffffffffffffffffffffffffffffffffff163373ffffffffffffffffffffffffffffffffffffffff167fdb9d5d31320daf5bc7181d565b6da4d12e30f0f4d5aa324a992426c14a1d19ce60405160405180910390a350565b62000a41620015a4565b151562000ab6576040517f08c379a00000000000000000000000000000000000000000000000000000000081526004018080602001828103825260138152602001807f43616c6c6572206973206e6f742041646d696e0000000000000000000000000081525060200191505060405180910390fd5b60008090505b60028054905081101562000ae35762000ad5816200163e565b808060010191505062000abc565b50565b60008060008373ffffffffffffffffffffffffffffffffffffffff1673ffffffffffffffffffffffffffffffffffffffff16815260200190815260200160002060009054906101000a900460ff169050919050565b62000b45620015a4565b151562000bba576040517f08c379a00000000000000000000000000000000000000000000000000000000081526004018080602001828103825260138152602001807f43616c6c6572206973206e6f742041646d696e0000000000000000000000000081525060200191505060405180910390fd5b600062000bc66200082e565b9050600062000bd4620008e5565b90508173ffffffffffffffffffffffffffffffffffffffff166108fc829081150290604051600060405180830381858888f1935050505015801562000c1d573d6000803e3d6000fd5b507f4e70a604b23a8edee2b1d0a656e9b9c00b73ad8bb1afc2c59381ee9f69197de7816040518082815260200191505060405180910390a15050565b62000c63620015a4565b151562000cd8576040517f08c379a00000000000000000000000000000000000000000000000000000000081526004018080602001828103825260138152602001807f43616c6c6572206973206e6f742041646d696e0000000000000000000000000081525060200191505060405180910390fd5b62000ce38162001776565b50565b6060600280548060200260200160405190810160405280929190818152602001828054801562000d6c57602002820191906000526020600020905b8160009054906101000a900473ffffffffffffffffffffffffffffffffffffffff1673ffffffffffffffffffffffffffffffffffffffff168152602001906001019080831162000d21575b5050505050905090565b62000d80620015a4565b151562000df5576040517f08c379a00000000000000000000000000000000000000000000000000000000081526004018080602001828103825260138152602001807f43616c6c6572206973206e6f742041646d696e0000000000000000000000000081525060200191505060405180910390fd5b60016000808373ffffffffffffffffffffffffffffffffffffffff1673ffffffffffffffffffffffffffffffffffffffff16815260200190815260200160002060006101000a81548160ff0219169083151502179055508073ffffffffffffffffffffffffffffffffffffffff163373ffffffffffffffffffffffffffffffffffffffff167fbf3f493c772c8c283fd124432c2d0f539ab343faa04258fe88e52912d36b102b60405160405180910390a350565b62000eb3620015a4565b151562000f28576040517f08c379a00000000000000000000000000000000000000000000000000000000081526004018080602001828103825260138152602001807f43616c6c6572206973206e6f742041646d696e0000000000000000000000000081525060200191505060405180910390fd5b600062000f346200082e565b90508073ffffffffffffffffffffffffffffffffffffffff16ff5b62000f59620015a4565b151562000fce576040517f08c379a00000000000000000000000000000000000000000000000000000000081526004018080602001828103825260138152602001807f43616c6c6572206973206e6f742041646d696e0000000000000000000000000081525060200191505060405180910390fd5b60008090505b60028054905081101562000ffb5762000fed8162001776565b808060010191505062000fd4565b50565b62001008620015a4565b15156200107d576040517f08c379a00000000000000000000000000000000000000000000000000000000081526004018080602001828103825260138152602001807f43616c6c6572206973206e6f742041646d696e0000000000000000000000000081525060200191505060405180910390fd5b864210151515620010f6576040517f08c379a00000000000000000000000000000000000000000000000000000000081526004018080602001828103825260098152602001807f546f6f206561726c79000000000000000000000000000000000000000000000081525060200191505060405180910390fd5b6200114986868686868080601f016020809104026020016040519081016040528093929190818152602001838380828437600081840152601f19601f8201169050808301925050505050505085620018ae565b50505050505050565b8181905084849050141515620011f6576040517f08c379a00000000000000000000000000000000000000000000000000000000081526004018080602001828103825260258152602001807f69647820616e642062616c616e6365206c656e67746820646f6573206e6f742081526020017f6d6174636800000000000000000000000000000000000000000000000000000081525060400191505060405180910390fd5b600080905060008090505b85859050811015620012355783838281811015156200121c57fe5b9050602002013582019150808060010191505062001201565b50803410151515620012af576040517f08c379a00000000000000000000000000000000000000000000000000000000081526004018080602001828103825260208152602001807f62616c616e6365206973206c6172676572207468616e2073656e74206b6c617981525060200191505060405180910390fd5b60008090505b858590508110156200130557620012f78686838181101515620012d457fe5b905060200201358585848181101515620012ea57fe5b9050602002013562001bca565b8080600101915050620012b5565b505050505050565b62001317620015a4565b15156200138c576040517f08c379a00000000000000000000000000000000000000000000000000000000081526004018080602001828103825260138152602001807f43616c6c6572206973206e6f742041646d696e0000000000000000000000000081525060200191505060405180910390fd5b86431015151562001405576040517f08c379a00000000000000000000000000000000000000000000000000000000081526004018080602001828103825260098152602001807f546f6f206561726c79000000000000000000000000000000000000000000000081525060200191505060405180910390fd5b6200145886868686868080601f016020809104026020016040519081016040528093929190818152602001838380828437600081840152601f19601f8201169050808301925050505050505085620018ae565b50505050505050565b6200146b620015a4565b1515620014e0576040517f08c379a00000000000000000000000000000000000000000000000000000000081526004018080602001828103825260138152602001807f43616c6c6572206973206e6f742041646d696e0000000000000000000000000081525060200191505060405180910390fd5b600354840234620014f0620008e5565b01101515156200158e576040517f08c379a00000000000000000000000000000000000000000000000000000000081526004018080602001828103825260238152602001807f4e6f7420656e6f756768206b6c617920746f2073656e64207472616e7361637481526020017f696f6e000000000000000000000000000000000000000000000000000000000081525060400191505060405180910390fd5b6200159d858585858562001c87565b5050505050565b6000620015b13362000ae6565b905090565b7f4d6ce1e535dbade1c23defba91e23b8f791ce5edc0cc320257a2b364e4e38426346040518082815260200191505060405180910390a1565b6000620015fb6200082e565b73ffffffffffffffffffffffffffffffffffffffff163373ffffffffffffffffffffffffffffffffffffffff1614905090565b6200163a828262001bca565b5050565b60028054905081101515620016bb576040517f08c379a000000000000000000000000000000000000000000000000000000000815260040180806020018281038252600b8152602001807f496e76616c69642069647800000000000000000000000000000000000000000081525060200191505060405180910390fd5b600281815481101515620016cb57fe5b9060005260206000200160009054906101000a900473ffffffffffffffffffffffffffffffffffffffff1673ffffffffffffffffffffffffffffffffffffffff16633ccfd60b6040518163ffffffff167c0100000000000000000000000000000000000000000000000000000000028152600401600060405180830381600087803b1580156200175a57600080fd5b505af11580156200176f573d6000803e3d6000fd5b5050505050565b60028054905081101515620017f3576040517f08c379a000000000000000000000000000000000000000000000000000000000815260040180806020018281038252600b8152602001807f496e76616c69642069647800000000000000000000000000000000000000000081525060200191505060405180910390fd5b6002818154811015156200180357fe5b9060005260206000200160009054906101000a900473ffffffffffffffffffffffffffffffffffffffff1673ffffffffffffffffffffffffffffffffffffffff166371f1c7b26040518163ffffffff167c0100000000000000000000000000000000000000000000000000000000028152600401600060405180830381600087803b1580156200189257600080fd5b505af1158015620018a7573d6000803e3d6000fd5b5050505050565b6003548186020234620018c0620008e5565b01101515156200195e576040517f08c379a00000000000000000000000000000000000000000000000000000000081526004018080602001828103825260238152602001807f4e6f7420656e6f756768206b6c617920746f2073656e64207472616e7361637481526020017f696f6e000000000000000000000000000000000000000000000000000000000081525060400191505060405180910390fd5b828510151515620019fd576040517f08c379a00000000000000000000000000000000000000000000000000000000081526004018080602001828103825260228152602001807f5472616e7366657220616d6f756e74206973206c657373207468616e2076616c81526020017f756500000000000000000000000000000000000000000000000000000000000081525060400191505060405180910390fd5b60008090505b8181101562001b9657600060035487023387878762001a2162001dfa565b808573ffffffffffffffffffffffffffffffffffffffff1673ffffffffffffffffffffffffffffffffffffffff1681526020018473ffffffffffffffffffffffffffffffffffffffff1673ffffffffffffffffffffffffffffffffffffffff16815260200183815260200180602001828103825283818151815260200191508051906020019080838360005b8381101562001aca57808201518184015260208101905062001aad565b50505050905090810190601f16801562001af85780820380516001836020036101000a031916815260200191505b50955050505050506040518091039082f08015801562001b1c573d6000803e3d6000fd5b509050905060028190806001815401808255809150509060018203906000526020600020016000909192909190916101000a81548173ffffffffffffffffffffffffffffffffffffffff021916908373ffffffffffffffffffffffffffffffffffffffff1602179055505050808060010191505062001a03565b507fe923f1ae2abf95fba64080dca4084b97e57ceddb8f45f6038172e39ac3b987be60405160405180910390a15050505050565b60028281548110151562001bda57fe5b9060005260206000200160009054906101000a900473ffffffffffffffffffffffffffffffffffffffff1673ffffffffffffffffffffffffffffffffffffffff1663d0e30db0826040518263ffffffff167c01000000000000000000000000000000000000000000000000000000000281526004016000604051808303818588803b15801562001c6957600080fd5b505af115801562001c7e573d6000803e3d6000fd5b50505050505050565b60028581548110151562001c9757fe5b9060005260206000200160009054906101000a900473ffffffffffffffffffffffffffffffffffffffff1673ffffffffffffffffffffffffffffffffffffffff16636dbf2fa060035486028585856040518563ffffffff167c0100000000000000000000000000000000000000000000000000000000028152600401808473ffffffffffffffffffffffffffffffffffffffff1673ffffffffffffffffffffffffffffffffffffffff16815260200183815260200180602001828103825283818151815260200191508051906020019080838360005b8381101562001d8a57808201518184015260208101905062001d6d565b50505050905090810190601f16801562001db85780820380516001836020036101000a031916815260200191505b509450505050506000604051808303818588803b15801562001dd957600080fd5b505af115801562001dee573d6000803e3d6000fd5b50505050505050505050565b6040516112de8062001e0c8339019056fe6080604052670de0b6b3a7640000600255604051620012de380380620012de833981018060405260808110156200003557600080fd5b8101908080519060200190929190805190602001909291908051906020019092919080516401000000008111156200006c57600080fd5b828101905060208101848111156200008357600080fd5b8151856001820283011164010000000082111715620000a157600080fd5b505092919050505060016000803373ffffffffffffffffffffffffffffffffffffffff1673ffffffffffffffffffffffffffffffffffffffff16815260200190815260200160002060006101000a81548160ff02191690831515021790555033600160006101000a81548173ffffffffffffffffffffffffffffffffffffffff021916908373ffffffffffffffffffffffffffffffffffffffff1602179055506200015b8462000181640100000000026401000000009004565b62000177838383620002c3640100000000026401000000009004565b505050506200069a565b6200019a6200042f640100000000026401000000009004565b15156200020f576040517f08c379a00000000000000000000000000000000000000000000000000000000081526004018080602001828103825260138152602001807f43616c6c6572206973206e6f742041646d696e0000000000000000000000000081525060200191505060405180910390fd5b60016000808373ffffffffffffffffffffffffffffffffffffffff1673ffffffffffffffffffffffffffffffffffffffff16815260200190815260200160002060006101000a81548160ff0219169083151502179055508073ffffffffffffffffffffffffffffffffffffffff163373ffffffffffffffffffffffffffffffffffffffff167fbf3f493c772c8c283fd124432c2d0f539ab343faa04258fe88e52912d36b102b60405160405180910390a350565b620002dc6200042f640100000000026401000000009004565b151562000351576040517f08c379a00000000000000000000000000000000000000000000000000000000081526004018080602001828103825260138152602001807f43616c6c6572206973206e6f742041646d696e0000000000000000000000000081525060200191505060405180910390fd5b6002548202346200037062000450640100000000026401000000009004565b01101515156200040e576040517f08c379a00000000000000000000000000000000000000000000000000000000081526004018080602001828103825260238152602001807f4e6f7420656e6f756768206b6c617920746f2073656e64207472616e7361637481526020017f696f6e000000000000000000000000000000000000000000000000000000000081525060400191505060405180910390fd5b6200042a8383836200046f640100000000026401000000009004565b505050565b60006200044b336200055e640100000000026401000000009004565b905090565b60003073ffffffffffffffffffffffffffffffffffffffff1631905090565b600060608473ffffffffffffffffffffffffffffffffffffffff166002548502846040518082805190602001908083835b602083101515620004c75780518252602082019150602081019050602083039250620004a0565b6001836020036101000a03801982511681845116808217855250505050505090500191505060006040518083038185875af1925050503d80600081146200052b576040519150601f19603f3d011682016040523d82523d6000602084013e62000530565b606091505b5091509150811515620005575762000556620005b3640100000000026401000000009004565b5b5050505050565b60008060008373ffffffffffffffffffffffffffffffffffffffff1673ffffffffffffffffffffffffffffffffffffffff16815260200190815260200160002060009054906101000a900460ff169050919050565b6000620005ce62000670640100000000026401000000009004565b90506000620005eb62000450640100000000026401000000009004565b90508173ffffffffffffffffffffffffffffffffffffffff166108fc829081150290604051600060405180830381858888f1935050505015801562000634573d6000803e3d6000fd5b507f4e70a604b23a8edee2b1d0a656e9b9c00b73ad8bb1afc2c59381ee9f69197de7816040518082815260200191505060405180910390a15050565b6000600160009054906101000a900473ffffffffffffffffffffffffffffffffffffffff16905090565b610c3480620006aa6000396000f3fe6080604052600436106100ba576000357c0100000000000000000000000000000000000000000000000000000000900463ffffffff16806302d05d3f146100bc57806312065fe0146101135780631785f53c1461013e57806323b872dd1461018f57806324d7806c1461020a5780633ccfd60b146102735780636dbf2fa01461028a578063704802751461036f57806371f1c7b2146103c0578063b6db75a0146103d7578063d0e30db014610406578063ee92d48414610410575b005b3480156100c857600080fd5b506100d161043f565b604051808273ffffffffffffffffffffffffffffffffffffffff1673ffffffffffffffffffffffffffffffffffffffff16815260200191505060405180910390f35b34801561011f57600080fd5b50610128610469565b6040518082815260200191505060405180910390f35b34801561014a57600080fd5b5061018d6004803603602081101561016157600080fd5b81019080803573ffffffffffffffffffffffffffffffffffffffff169060200190929190505050610488565b005b34801561019b57600080fd5b50610208600480360360608110156101b257600080fd5b81019080803573ffffffffffffffffffffffffffffffffffffffff169060200190929190803573ffffffffffffffffffffffffffffffffffffffff169060200190929190803590602001909291905050506105b8565b005b34801561021657600080fd5b506102596004803603602081101561022d57600080fd5b81019080803573ffffffffffffffffffffffffffffffffffffffff1690602001909291905050506106b2565b604051808215151515815260200191505060405180910390f35b34801561027f57600080fd5b50610288610707565b005b61036d600480360360608110156102a057600080fd5b81019080803573ffffffffffffffffffffffffffffffffffffffff16906020019092919080359060200190929190803590602001906401000000008111156102e757600080fd5b8201836020820111156102f957600080fd5b8035906020019184600183028401116401000000008311171561031b57600080fd5b91908080601f016020809104026020016040519081016040528093929190818152602001838380828437600081840152601f19601f8201169050808301925050505050505091929192905050506107a1565b005b34801561037b57600080fd5b506103be6004803603602081101561039257600080fd5b81019080803573ffffffffffffffffffffffffffffffffffffffff1690602001909291905050506108d8565b005b3480156103cc57600080fd5b506103d5610a08565b005b3480156103e357600080fd5b506103ec610aa9565b604051808215151515815260200191505060405180910390f35b61040e610ab9565b005b34801561041c57600080fd5b50610425610af2565b604051808215151515815260200191505060405180910390f35b6000600160009054906101000a900473ffffffffffffffffffffffffffffffffffffffff16905090565b60003073ffffffffffffffffffffffffffffffffffffffff1631905090565b610490610aa9565b1515610504576040517f08c379a00000000000000000000000000000000000000000000000000000000081526004018080602001828103825260138152602001807f43616c6c6572206973206e6f742041646d696e0000000000000000000000000081525060200191505060405180910390fd5b60008060008373ffffffffffffffffffffffffffffffffffffffff1673ffffffffffffffffffffffffffffffffffffffff16815260200190815260200160002060006101000a81548160ff0219169083151502179055508073ffffffffffffffffffffffffffffffffffffffff163373ffffffffffffffffffffffffffffffffffffffff167fdb9d5d31320daf5bc7181d565b6da4d12e30f0f4d5aa324a992426c14a1d19ce60405160405180910390a350565b60008390508073ffffffffffffffffffffffffffffffffffffffff166342842e0e3085856040518463ffffffff167c0100000000000000000000000000000000000000000000000000000000028152600401808473ffffffffffffffffffffffffffffffffffffffff1673ffffffffffffffffffffffffffffffffffffffff1681526020018373ffffffffffffffffffffffffffffffffffffffff1673ffffffffffffffffffffffffffffffffffffffff1681526020018281526020019350505050600060405180830381600087803b15801561069457600080fd5b505af11580156106a8573d6000803e3d6000fd5b5050505050505050565b60008060008373ffffffffffffffffffffffffffffffffffffffff1673ffffffffffffffffffffffffffffffffffffffff16815260200190815260200160002060009054906101000a900460ff169050919050565b600061071161043f565b9050600061071d610469565b90508173ffffffffffffffffffffffffffffffffffffffff166108fc829081150290604051600060405180830381858888f19350505050158015610765573d6000803e3d6000fd5b507f4e70a604b23a8edee2b1d0a656e9b9c00b73ad8bb1afc2c59381ee9f69197de7816040518082815260200191505060405180910390a15050565b6107a9610aa9565b151561081d576040517f08c379a00000000000000000000000000000000000000000000000000000000081526004018080602001828103825260138152602001807f43616c6c6572206973206e6f742041646d696e0000000000000000000000000081525060200191505060405180910390fd5b60025482023461082b610469565b01101515156108c8576040517f08c379a00000000000000000000000000000000000000000000000000000000081526004018080602001828103825260238152602001807f4e6f7420656e6f756768206b6c617920746f2073656e64207472616e7361637481526020017f696f6e000000000000000000000000000000000000000000000000000000000081525060400191505060405180910390fd5b6108d3838383610b2f565b505050565b6108e0610aa9565b1515610954576040517f08c379a00000000000000000000000000000000000000000000000000000000081526004018080602001828103825260138152602001807f43616c6c6572206973206e6f742041646d696e0000000000000000000000000081525060200191505060405180910390fd5b60016000808373ffffffffffffffffffffffffffffffffffffffff1673ffffffffffffffffffffffffffffffffffffffff16815260200190815260200160002060006101000a81548160ff0219169083151502179055508073ffffffffffffffffffffffffffffffffffffffff163373ffffffffffffffffffffffffffffffffffffffff167fbf3f493c772c8c283fd124432c2d0f539ab343faa04258fe88e52912d36b102b60405160405180910390a350565b610a10610aa9565b1515610a84576040517f08c379a00000000000000000000000000000000000000000000000000000000081526004018080602001828103825260138152602001807f43616c6c6572206973206e6f742041646d696e0000000000000000000000000081525060200191505060405180910390fd5b6000610a8e61043f565b90508073ffffffffffffffffffffffffffffffffffffffff16ff5b6000610ab4336106b2565b905090565b7f4d6ce1e535dbade1c23defba91e23b8f791ce5edc0cc320257a2b364e4e38426346040518082815260200191505060405180910390a1565b6000610afc61043f565b73ffffffffffffffffffffffffffffffffffffffff163373ffffffffffffffffffffffffffffffffffffffff1614905090565b600060608473ffffffffffffffffffffffffffffffffffffffff166002548502846040518082805190602001908083835b602083101515610b855780518252602082019150602081019050602083039250610b60565b6001836020036101000a03801982511681845116808217855250505050505090500191505060006040518083038185875af1925050503d8060008114610be7576040519150601f19603f3d011682016040523d82523d6000602084013e610bec565b606091505b5091509150811515610c0157610c00610707565b5b505050505056fea165627a7a72305820bfad9e9b52f650df16139dd1b6f4c17404c38673a4ff4bf813bd26d022096b420029a165627a7a723058208baec4b70ed088133690526b37bf9d71c1b729796d6d6a5549cb05a227be93020029",
  "source": "pragma solidity ^0.5.0;\r\n\r\nimport \"./admin.sol\";\r\nimport \"./minter.sol\";\r\n\r\ncontract controller is Admin {\r\n    Minter[] minters;\r\n\r\n    uint256 klayToPeb = 1000000000000000000;\r\n\r\n    event Deposit(uint256 amount);\r\n    event Withdrawal(uint256 amount);\r\n    event Minted();\r\n\r\n    constructor() public payable {}\r\n\r\n    function mintTime(\r\n        uint256 timestamp,\r\n        uint256 transferAmt,\r\n        address contractAddr,\r\n        uint256 value,\r\n        bytes calldata data,\r\n        uint256 num\r\n    ) external payable onlyAdmin {\r\n        require(block.timestamp >= timestamp, \"Too early\");\r\n        _mint(transferAmt, contractAddr, value, data, num);\r\n    }\r\n\r\n    function mintBlock(\r\n        uint256 blockNumber,\r\n        uint256 transferAmt,\r\n        address contractAddr,\r\n        uint256 value,\r\n        bytes calldata data,\r\n        uint256 num\r\n    ) external payable onlyAdmin {\r\n        require(block.number >= blockNumber, \"Too early\");\r\n        _mint(transferAmt, contractAddr, value, data, num);\r\n    }\r\n\r\n    function _mint(\r\n        uint256 transferAmt,\r\n        address contractAddr,\r\n        uint256 value,\r\n        bytes memory data,\r\n        uint256 num\r\n    ) internal {\r\n        require(\r\n            getBalance() + msg.value >= transferAmt * num * klayToPeb,\r\n            \"Not enough klay to send transaction\"\r\n        );\r\n        require(transferAmt >= value, \"Transfer amount is less than value\");\r\n\r\n        for (uint256 i = 0; i < num; i++) {\r\n            Minter newMinter = (new Minter).value(transferAmt * klayToPeb)(\r\n                msg.sender,\r\n                contractAddr,\r\n                value,\r\n                data\r\n            );\r\n\r\n            minters.push(newMinter);\r\n        }\r\n        emit Minted();\r\n    }\r\n\r\n    function call(\r\n        uint256 idx,\r\n        uint256 transferAmt,\r\n        address contractAddr,\r\n        uint256 value,\r\n        bytes memory data\r\n    ) public payable onlyAdmin {\r\n        require(\r\n            getBalance() + msg.value >= transferAmt * klayToPeb,\r\n            \"Not enough klay to send transaction\"\r\n        );\r\n        _call(idx, transferAmt, contractAddr, value, data);\r\n    }\r\n\r\n    function _call(\r\n        uint256 idx,\r\n        uint256 transferAmt,\r\n        address contractAddr,\r\n        uint256 value,\r\n        bytes memory data\r\n    ) private {\r\n        minters[idx].call.value(transferAmt * klayToPeb)(\r\n            contractAddr,\r\n            value,\r\n            data\r\n        );\r\n    }\r\n\r\n    function getBalance() public view returns (uint256) {\r\n        return address(this).balance;\r\n    }\r\n\r\n    function getMinters() external view returns (Minter[] memory) {\r\n        return minters;\r\n    }\r\n\r\n    function deposit() external payable {\r\n        emit Deposit(msg.value);\r\n    }\r\n\r\n    function withdraw() external onlyAdmin {\r\n        address payable addr = creator();\r\n        uint256 value = getBalance();\r\n        addr.transfer(value);\r\n\r\n        emit Withdrawal(value);\r\n    }\r\n\r\n    function depositMinters(uint256[] calldata idx, uint256[] calldata balance)\r\n        external\r\n        payable\r\n    {\r\n        require(\r\n            idx.length == balance.length,\r\n            \"idx and balance length does not match\"\r\n        );\r\n\r\n        uint256 total = 0;\r\n        for (uint256 i = 0; i < idx.length; i++) total += balance[i];\r\n\r\n        require(msg.value >= total, \"balance is larger than sent klay\");\r\n\r\n        for (uint256 i = 0; i < idx.length; i++)\r\n            _depositMinters(idx[i], balance[i]);\r\n    }\r\n\r\n    function depositMinters(uint256 idx, uint256 balance) external payable {\r\n        _depositMinters(idx, balance);\r\n    }\r\n\r\n    function _depositMinters(uint256 idx, uint256 balance) private {\r\n        minters[idx].deposit.value(balance)();\r\n    }\r\n\r\n    function withdrawMinters() external onlyAdmin {\r\n        for (uint256 i = 0; i < minters.length; i++) {\r\n            _withdrawMinters(i);\r\n        }\r\n    }\r\n\r\n    function withdrawMinters(uint256 idx) external onlyAdmin {\r\n        _withdrawMinters(idx);\r\n    }\r\n\r\n    function _withdrawMinters(uint256 idx) private {\r\n        require(idx < minters.length, \"Invalid idx\");\r\n        minters[idx].withdraw();\r\n    }\r\n\r\n    function suicideMinters() external onlyAdmin {\r\n        for (uint256 i = 0; i < minters.length; i++) {\r\n            _suicideMinters(i);\r\n        }\r\n    }\r\n\r\n    function suicideMinters(uint256 idx) external onlyAdmin {\r\n        _suicideMinters(idx);\r\n    }\r\n\r\n    function _suicideMinters(uint256 idx) private {\r\n        require(idx < minters.length, \"Invalid idx\");\r\n        minters[idx].SUICIDE();\r\n    }\r\n\r\n    function SUICIDE() external onlyAdmin {\r\n        address payable addr = creator();\r\n        selfdestruct(addr);\r\n    }\r\n\r\n    function() external payable {}\r\n}\r\n",
  "sourcePath": "/home/kyusang/Desktop/ContractMinter/MinterV2/contracts/controller.sol",
  "compiler": {
    "name": "solc",
    "version": "0.5.0+commit.1d4f565a.Emscripten.clang"
  },
  "schemaVersion": "3.4.7",
  "updatedAt": "2022-05-22T19:45:32.532Z",
  "devdoc": {
    "methods": {}
  },
  "userdoc": {
    "methods": {}
  }
}