{
  "contractName": "Minter",
  "abi": [
    {
      "constant": true,
      "inputs": [],
      "name": "creator",
      "outputs": [
        {
          "name": "",
          "type": "address"
        }
      ],
      "payable": false,
      "stateMutability": "view",
      "type": "function"
    },
    {
      "constant": false,
      "inputs": [
        {
          "name": "adminAddr",
          "type": "address"
        }
      ],
      "name": "removeAdmin",
      "outputs": [],
      "payable": false,
      "stateMutability": "nonpayable",
      "type": "function"
    },
    {
      "constant": true,
      "inputs": [
        {
          "name": "addr",
          "type": "address"
        }
      ],
      "name": "isAdmin",
      "outputs": [
        {
          "name": "",
          "type": "bool"
        }
      ],
      "payable": false,
      "stateMutability": "view",
      "type": "function"
    },
    {
      "constant": false,
      "inputs": [
        {
          "name": "newAdmin",
          "type": "address"
        }
      ],
      "name": "addAdmin",
      "outputs": [],
      "payable": false,
      "stateMutability": "nonpayable",
      "type": "function"
    },
    {
      "constant": true,
      "inputs": [],
      "name": "isAdmin",
      "outputs": [
        {
          "name": "",
          "type": "bool"
        }
      ],
      "payable": false,
      "stateMutability": "view",
      "type": "function"
    },
    {
      "constant": true,
      "inputs": [],
      "name": "isCreator",
      "outputs": [
        {
          "name": "",
          "type": "bool"
        }
      ],
      "payable": false,
      "stateMutability": "view",
      "type": "function"
    },
    {
      "inputs": [
        {
          "name": "txSender",
          "type": "address"
        },
        {
          "name": "contractAddr",
          "type": "address"
        },
        {
          "name": "value",
          "type": "uint256"
        },
        {
          "name": "data",
          "type": "bytes"
        }
      ],
      "payable": true,
      "stateMutability": "payable",
      "type": "constructor"
    },
    {
      "payable": true,
      "stateMutability": "payable",
      "type": "fallback"
    },
    {
      "anonymous": false,
      "inputs": [
        {
          "indexed": false,
          "name": "contractAddr",
          "type": "address"
        },
        {
          "indexed": false,
          "name": "value",
          "type": "uint256"
        },
        {
          "indexed": false,
          "name": "data",
          "type": "bytes"
        },
        {
          "indexed": false,
          "name": "num",
          "type": "uint256"
        }
      ],
      "name": "Call",
      "type": "event"
    },
    {
      "anonymous": false,
      "inputs": [
        {
          "indexed": false,
          "name": "amount",
          "type": "uint256"
        }
      ],
      "name": "Deposit",
      "type": "event"
    },
    {
      "anonymous": false,
      "inputs": [
        {
          "indexed": false,
          "name": "amount",
          "type": "uint256"
        }
      ],
      "name": "Withdrawal",
      "type": "event"
    },
    {
      "anonymous": false,
      "inputs": [
        {
          "indexed": true,
          "name": "Authorizer",
          "type": "address"
        },
        {
          "indexed": true,
          "name": "NewAdmin",
          "type": "address"
        }
      ],
      "name": "AdminAdded",
      "type": "event"
    },
    {
      "anonymous": false,
      "inputs": [
        {
          "indexed": true,
          "name": "Authorizer",
          "type": "address"
        },
        {
          "indexed": true,
          "name": "RemovedAdmin",
          "type": "address"
        }
      ],
      "name": "AdminRemoved",
      "type": "event"
    },
    {
      "constant": false,
      "inputs": [
        {
          "name": "contractAddr",
          "type": "address"
        },
        {
          "name": "value",
          "type": "uint256"
        },
        {
          "name": "data",
          "type": "bytes"
        }
      ],
      "name": "call",
      "outputs": [],
      "payable": true,
      "stateMutability": "payable",
      "type": "function"
    },
    {
      "constant": false,
      "inputs": [
        {
          "name": "nftContractAddr",
          "type": "address"
        },
        {
          "name": "_to",
          "type": "address"
        },
        {
          "name": "_tokenId",
          "type": "uint256"
        }
      ],
      "name": "transferFrom",
      "outputs": [],
      "payable": false,
      "stateMutability": "nonpayable",
      "type": "function"
    },
    {
      "constant": false,
      "inputs": [],
      "name": "deposit",
      "outputs": [],
      "payable": true,
      "stateMutability": "payable",
      "type": "function"
    },
    {
      "constant": false,
      "inputs": [],
      "name": "withdraw",
      "outputs": [],
      "payable": false,
      "stateMutability": "nonpayable",
      "type": "function"
    },
    {
      "constant": true,
      "inputs": [],
      "name": "getBalance",
      "outputs": [
        {
          "name": "",
          "type": "uint256"
        }
      ],
      "payable": false,
      "stateMutability": "view",
      "type": "function"
    },
    {
      "constant": false,
      "inputs": [],
      "name": "SUICIDE",
      "outputs": [],
      "payable": false,
      "stateMutability": "nonpayable",
      "type": "function"
    }
  ],
  "bytecode": "0x6080604052670de0b6b3a7640000600255604051620012de380380620012de833981018060405260808110156200003557600080fd5b8101908080519060200190929190805190602001909291908051906020019092919080516401000000008111156200006c57600080fd5b828101905060208101848111156200008357600080fd5b8151856001820283011164010000000082111715620000a157600080fd5b505092919050505060016000803373ffffffffffffffffffffffffffffffffffffffff1673ffffffffffffffffffffffffffffffffffffffff16815260200190815260200160002060006101000a81548160ff02191690831515021790555033600160006101000a81548173ffffffffffffffffffffffffffffffffffffffff021916908373ffffffffffffffffffffffffffffffffffffffff1602179055506200015b8462000181640100000000026401000000009004565b62000177838383620002c3640100000000026401000000009004565b505050506200069a565b6200019a6200042f640100000000026401000000009004565b15156200020f576040517f08c379a00000000000000000000000000000000000000000000000000000000081526004018080602001828103825260138152602001807f43616c6c6572206973206e6f742041646d696e0000000000000000000000000081525060200191505060405180910390fd5b60016000808373ffffffffffffffffffffffffffffffffffffffff1673ffffffffffffffffffffffffffffffffffffffff16815260200190815260200160002060006101000a81548160ff0219169083151502179055508073ffffffffffffffffffffffffffffffffffffffff163373ffffffffffffffffffffffffffffffffffffffff167fbf3f493c772c8c283fd124432c2d0f539ab343faa04258fe88e52912d36b102b60405160405180910390a350565b620002dc6200042f640100000000026401000000009004565b151562000351576040517f08c379a00000000000000000000000000000000000000000000000000000000081526004018080602001828103825260138152602001807f43616c6c6572206973206e6f742041646d696e0000000000000000000000000081525060200191505060405180910390fd5b6002548202346200037062000450640100000000026401000000009004565b01101515156200040e576040517f08c379a00000000000000000000000000000000000000000000000000000000081526004018080602001828103825260238152602001807f4e6f7420656e6f756768206b6c617920746f2073656e64207472616e7361637481526020017f696f6e000000000000000000000000000000000000000000000000000000000081525060400191505060405180910390fd5b6200042a8383836200046f640100000000026401000000009004565b505050565b60006200044b336200055e640100000000026401000000009004565b905090565b60003073ffffffffffffffffffffffffffffffffffffffff1631905090565b600060608473ffffffffffffffffffffffffffffffffffffffff166002548502846040518082805190602001908083835b602083101515620004c75780518252602082019150602081019050602083039250620004a0565b6001836020036101000a03801982511681845116808217855250505050505090500191505060006040518083038185875af1925050503d80600081146200052b576040519150601f19603f3d011682016040523d82523d6000602084013e62000530565b606091505b5091509150811515620005575762000556620005b3640100000000026401000000009004565b5b5050505050565b60008060008373ffffffffffffffffffffffffffffffffffffffff1673ffffffffffffffffffffffffffffffffffffffff16815260200190815260200160002060009054906101000a900460ff169050919050565b6000620005ce62000670640100000000026401000000009004565b90506000620005eb62000450640100000000026401000000009004565b90508173ffffffffffffffffffffffffffffffffffffffff166108fc829081150290604051600060405180830381858888f1935050505015801562000634573d6000803e3d6000fd5b507f4e70a604b23a8edee2b1d0a656e9b9c00b73ad8bb1afc2c59381ee9f69197de7816040518082815260200191505060405180910390a15050565b6000600160009054906101000a900473ffffffffffffffffffffffffffffffffffffffff16905090565b610c3480620006aa6000396000f3fe6080604052600436106100ba576000357c0100000000000000000000000000000000000000000000000000000000900463ffffffff16806302d05d3f146100bc57806312065fe0146101135780631785f53c1461013e57806323b872dd1461018f57806324d7806c1461020a5780633ccfd60b146102735780636dbf2fa01461028a578063704802751461036f57806371f1c7b2146103c0578063b6db75a0146103d7578063d0e30db014610406578063ee92d48414610410575b005b3480156100c857600080fd5b506100d161043f565b604051808273ffffffffffffffffffffffffffffffffffffffff1673ffffffffffffffffffffffffffffffffffffffff16815260200191505060405180910390f35b34801561011f57600080fd5b50610128610469565b6040518082815260200191505060405180910390f35b34801561014a57600080fd5b5061018d6004803603602081101561016157600080fd5b81019080803573ffffffffffffffffffffffffffffffffffffffff169060200190929190505050610488565b005b34801561019b57600080fd5b50610208600480360360608110156101b257600080fd5b81019080803573ffffffffffffffffffffffffffffffffffffffff169060200190929190803573ffffffffffffffffffffffffffffffffffffffff169060200190929190803590602001909291905050506105b8565b005b34801561021657600080fd5b506102596004803603602081101561022d57600080fd5b81019080803573ffffffffffffffffffffffffffffffffffffffff1690602001909291905050506106b2565b604051808215151515815260200191505060405180910390f35b34801561027f57600080fd5b50610288610707565b005b61036d600480360360608110156102a057600080fd5b81019080803573ffffffffffffffffffffffffffffffffffffffff16906020019092919080359060200190929190803590602001906401000000008111156102e757600080fd5b8201836020820111156102f957600080fd5b8035906020019184600183028401116401000000008311171561031b57600080fd5b91908080601f016020809104026020016040519081016040528093929190818152602001838380828437600081840152601f19601f8201169050808301925050505050505091929192905050506107a1565b005b34801561037b57600080fd5b506103be6004803603602081101561039257600080fd5b81019080803573ffffffffffffffffffffffffffffffffffffffff1690602001909291905050506108d8565b005b3480156103cc57600080fd5b506103d5610a08565b005b3480156103e357600080fd5b506103ec610aa9565b604051808215151515815260200191505060405180910390f35b61040e610ab9565b005b34801561041c57600080fd5b50610425610af2565b604051808215151515815260200191505060405180910390f35b6000600160009054906101000a900473ffffffffffffffffffffffffffffffffffffffff16905090565b60003073ffffffffffffffffffffffffffffffffffffffff1631905090565b610490610aa9565b1515610504576040517f08c379a00000000000000000000000000000000000000000000000000000000081526004018080602001828103825260138152602001807f43616c6c6572206973206e6f742041646d696e0000000000000000000000000081525060200191505060405180910390fd5b60008060008373ffffffffffffffffffffffffffffffffffffffff1673ffffffffffffffffffffffffffffffffffffffff16815260200190815260200160002060006101000a81548160ff0219169083151502179055508073ffffffffffffffffffffffffffffffffffffffff163373ffffffffffffffffffffffffffffffffffffffff167fdb9d5d31320daf5bc7181d565b6da4d12e30f0f4d5aa324a992426c14a1d19ce60405160405180910390a350565b60008390508073ffffffffffffffffffffffffffffffffffffffff166342842e0e3085856040518463ffffffff167c0100000000000000000000000000000000000000000000000000000000028152600401808473ffffffffffffffffffffffffffffffffffffffff1673ffffffffffffffffffffffffffffffffffffffff1681526020018373ffffffffffffffffffffffffffffffffffffffff1673ffffffffffffffffffffffffffffffffffffffff1681526020018281526020019350505050600060405180830381600087803b15801561069457600080fd5b505af11580156106a8573d6000803e3d6000fd5b5050505050505050565b60008060008373ffffffffffffffffffffffffffffffffffffffff1673ffffffffffffffffffffffffffffffffffffffff16815260200190815260200160002060009054906101000a900460ff169050919050565b600061071161043f565b9050600061071d610469565b90508173ffffffffffffffffffffffffffffffffffffffff166108fc829081150290604051600060405180830381858888f19350505050158015610765573d6000803e3d6000fd5b507f4e70a604b23a8edee2b1d0a656e9b9c00b73ad8bb1afc2c59381ee9f69197de7816040518082815260200191505060405180910390a15050565b6107a9610aa9565b151561081d576040517f08c379a00000000000000000000000000000000000000000000000000000000081526004018080602001828103825260138152602001807f43616c6c6572206973206e6f742041646d696e0000000000000000000000000081525060200191505060405180910390fd5b60025482023461082b610469565b01101515156108c8576040517f08c379a00000000000000000000000000000000000000000000000000000000081526004018080602001828103825260238152602001807f4e6f7420656e6f756768206b6c617920746f2073656e64207472616e7361637481526020017f696f6e000000000000000000000000000000000000000000000000000000000081525060400191505060405180910390fd5b6108d3838383610b2f565b505050565b6108e0610aa9565b1515610954576040517f08c379a00000000000000000000000000000000000000000000000000000000081526004018080602001828103825260138152602001807f43616c6c6572206973206e6f742041646d696e0000000000000000000000000081525060200191505060405180910390fd5b60016000808373ffffffffffffffffffffffffffffffffffffffff1673ffffffffffffffffffffffffffffffffffffffff16815260200190815260200160002060006101000a81548160ff0219169083151502179055508073ffffffffffffffffffffffffffffffffffffffff163373ffffffffffffffffffffffffffffffffffffffff167fbf3f493c772c8c283fd124432c2d0f539ab343faa04258fe88e52912d36b102b60405160405180910390a350565b610a10610aa9565b1515610a84576040517f08c379a00000000000000000000000000000000000000000000000000000000081526004018080602001828103825260138152602001807f43616c6c6572206973206e6f742041646d696e0000000000000000000000000081525060200191505060405180910390fd5b6000610a8e61043f565b90508073ffffffffffffffffffffffffffffffffffffffff16ff5b6000610ab4336106b2565b905090565b7f4d6ce1e535dbade1c23defba91e23b8f791ce5edc0cc320257a2b364e4e38426346040518082815260200191505060405180910390a1565b6000610afc61043f565b73ffffffffffffffffffffffffffffffffffffffff163373ffffffffffffffffffffffffffffffffffffffff1614905090565b600060608473ffffffffffffffffffffffffffffffffffffffff166002548502846040518082805190602001908083835b602083101515610b855780518252602082019150602081019050602083039250610b60565b6001836020036101000a03801982511681845116808217855250505050505090500191505060006040518083038185875af1925050503d8060008114610be7576040519150601f19603f3d011682016040523d82523d6000602084013e610bec565b606091505b5091509150811515610c0157610c00610707565b5b505050505056fea165627a7a72305820f2e370ee1e289dbe6fa041ee72537223daddc0d403c2e02864d015cbfd199a790029",
  "source": "pragma solidity ^0.5.0;\r\n\r\nimport \"./Admin.sol\";\r\nimport \"@klaytn/contracts/token/KIP17/IKIP17.sol\";\r\n\r\n// TODO\r\n// - Send remove signal to controller\r\n// - Add transferFrom(KIP17) function for easy transfer\r\n\r\ncontract Minter is Admin {\r\n    uint256 klayToPeb = 1000000000000000000;\r\n\r\n    event Call(address contractAddr, uint256 value, bytes data, uint256 num);\r\n    event Deposit(uint256 amount);\r\n    event Withdrawal(uint256 amount);\r\n\r\n    constructor(\r\n        address payable txSender,\r\n        address contractAddr,\r\n        uint256 value,\r\n        bytes memory data\r\n    ) public payable {\r\n        addAdmin(txSender);\r\n        call(contractAddr, value, data);\r\n    }\r\n\r\n    function call(\r\n        address contractAddr,\r\n        uint256 value,\r\n        bytes memory data\r\n    ) public payable onlyAdmin {\r\n        require(\r\n            getBalance() + msg.value >= value * klayToPeb,\r\n            \"Not enough klay to send transaction\"\r\n        );\r\n\r\n        _call(contractAddr, value, data);\r\n    }\r\n\r\n    function _call(\r\n        address contractAddr,\r\n        uint256 value,\r\n        bytes memory data\r\n    ) internal {\r\n        (bool success, bytes memory data) = contractAddr.call.value(\r\n            value * klayToPeb\r\n        )(data);\r\n        if (!success) {\r\n            withdraw();\r\n        }\r\n    }\r\n\r\n    function transferFrom(\r\n        address nftContractAddr,\r\n        address _to,\r\n        uint256 _tokenId\r\n    ) external {\r\n        IKIP17 nftContract = IKIP17(nftContractAddr);\r\n        nftContract.safeTransferFrom(address(this), _to, _tokenId);\r\n    }\r\n\r\n    function deposit() external payable {\r\n        emit Deposit(msg.value);\r\n    }\r\n\r\n    function withdraw() public {\r\n        address payable addr = creator();\r\n        uint256 value = getBalance();\r\n        addr.transfer(value);\r\n\r\n        emit Withdrawal(value);\r\n    }\r\n\r\n    function getBalance() public view returns (uint256) {\r\n        return address(this).balance;\r\n    }\r\n\r\n    function SUICIDE() external onlyAdmin {\r\n        address payable addr = creator();\r\n        selfdestruct(addr);\r\n    }\r\n\r\n    function() external payable {}\r\n}\r\n",
  "sourcePath": "/home/kyusang/Desktop/ContractMinter/MinterV2/contracts/Minter.sol",
  "compiler": {
    "name": "solc",
    "version": "0.5.0+commit.1d4f565a.Emscripten.clang"
  },
  "schemaVersion": "3.4.7",
  "updatedAt": "2022-05-22T20:53:48.652Z",
  "devdoc": {
    "methods": {}
  },
  "userdoc": {
    "methods": {}
  }
}