{
  "contractName": "nftExample",
  "abi": [
    {
      "constant": true,
      "inputs": [],
      "name": "creator",
      "outputs": [
        {
          "name": "",
          "type": "address"
        }
      ],
      "payable": false,
      "stateMutability": "view",
      "type": "function"
    },
    {
      "constant": false,
      "inputs": [
        {
          "name": "adminAddr",
          "type": "address"
        }
      ],
      "name": "removeAdmin",
      "outputs": [],
      "payable": false,
      "stateMutability": "nonpayable",
      "type": "function"
    },
    {
      "constant": true,
      "inputs": [
        {
          "name": "addr",
          "type": "address"
        }
      ],
      "name": "isAdmin",
      "outputs": [
        {
          "name": "",
          "type": "bool"
        }
      ],
      "payable": false,
      "stateMutability": "view",
      "type": "function"
    },
    {
      "constant": false,
      "inputs": [
        {
          "name": "newAdmin",
          "type": "address"
        }
      ],
      "name": "addAdmin",
      "outputs": [],
      "payable": false,
      "stateMutability": "nonpayable",
      "type": "function"
    },
    {
      "constant": true,
      "inputs": [],
      "name": "isAdmin",
      "outputs": [
        {
          "name": "",
          "type": "bool"
        }
      ],
      "payable": false,
      "stateMutability": "view",
      "type": "function"
    },
    {
      "constant": true,
      "inputs": [],
      "name": "isCreator",
      "outputs": [
        {
          "name": "",
          "type": "bool"
        }
      ],
      "payable": false,
      "stateMutability": "view",
      "type": "function"
    },
    {
      "inputs": [],
      "payable": false,
      "stateMutability": "nonpayable",
      "type": "constructor"
    },
    {
      "anonymous": false,
      "inputs": [],
      "name": "Withdrawn",
      "type": "event"
    },
    {
      "anonymous": false,
      "inputs": [
        {
          "indexed": false,
          "name": "timestamp",
          "type": "uint256"
        },
        {
          "indexed": false,
          "name": "blockNumber",
          "type": "uint256"
        },
        {
          "indexed": false,
          "name": "amount",
          "type": "uint256"
        }
      ],
      "name": "Success",
      "type": "event"
    },
    {
      "anonymous": false,
      "inputs": [
        {
          "indexed": true,
          "name": "Authorizer",
          "type": "address"
        },
        {
          "indexed": true,
          "name": "NewAdmin",
          "type": "address"
        }
      ],
      "name": "AdminAdded",
      "type": "event"
    },
    {
      "anonymous": false,
      "inputs": [
        {
          "indexed": true,
          "name": "Authorizer",
          "type": "address"
        },
        {
          "indexed": true,
          "name": "RemovedAdmin",
          "type": "address"
        }
      ],
      "name": "AdminRemoved",
      "type": "event"
    },
    {
      "constant": false,
      "inputs": [
        {
          "name": "amt",
          "type": "uint256"
        }
      ],
      "name": "mint",
      "outputs": [],
      "payable": true,
      "stateMutability": "payable",
      "type": "function"
    },
    {
      "constant": true,
      "inputs": [
        {
          "name": "addr",
          "type": "address"
        }
      ],
      "name": "isContract",
      "outputs": [
        {
          "name": "",
          "type": "bool"
        }
      ],
      "payable": false,
      "stateMutability": "view",
      "type": "function"
    },
    {
      "constant": true,
      "inputs": [],
      "name": "getBlockBased",
      "outputs": [
        {
          "name": "",
          "type": "bool"
        }
      ],
      "payable": false,
      "stateMutability": "view",
      "type": "function"
    },
    {
      "constant": false,
      "inputs": [
        {
          "name": "flag",
          "type": "bool"
        }
      ],
      "name": "setBlockBased",
      "outputs": [],
      "payable": false,
      "stateMutability": "nonpayable",
      "type": "function"
    },
    {
      "constant": false,
      "inputs": [
        {
          "name": "price",
          "type": "uint256"
        }
      ],
      "name": "setPrice",
      "outputs": [],
      "payable": false,
      "stateMutability": "nonpayable",
      "type": "function"
    },
    {
      "constant": true,
      "inputs": [],
      "name": "getPrice",
      "outputs": [
        {
          "name": "",
          "type": "uint256"
        }
      ],
      "payable": false,
      "stateMutability": "view",
      "type": "function"
    },
    {
      "constant": false,
      "inputs": [
        {
          "name": "blockNumber",
          "type": "uint256"
        }
      ],
      "name": "setBlockNumber",
      "outputs": [],
      "payable": false,
      "stateMutability": "nonpayable",
      "type": "function"
    },
    {
      "constant": true,
      "inputs": [],
      "name": "getBlockNumber",
      "outputs": [
        {
          "name": "",
          "type": "uint256"
        }
      ],
      "payable": false,
      "stateMutability": "view",
      "type": "function"
    },
    {
      "constant": false,
      "inputs": [
        {
          "name": "timestamp",
          "type": "uint256"
        }
      ],
      "name": "setTimestamp",
      "outputs": [],
      "payable": false,
      "stateMutability": "nonpayable",
      "type": "function"
    },
    {
      "constant": true,
      "inputs": [],
      "name": "getTimestamp",
      "outputs": [
        {
          "name": "",
          "type": "uint256"
        }
      ],
      "payable": false,
      "stateMutability": "view",
      "type": "function"
    },
    {
      "constant": true,
      "inputs": [],
      "name": "getBalance",
      "outputs": [
        {
          "name": "",
          "type": "uint256"
        }
      ],
      "payable": false,
      "stateMutability": "view",
      "type": "function"
    },
    {
      "constant": false,
      "inputs": [],
      "name": "withdraw",
      "outputs": [],
      "payable": false,
      "stateMutability": "nonpayable",
      "type": "function"
    },
    {
      "constant": false,
      "inputs": [],
      "name": "SUICIDE",
      "outputs": [],
      "payable": false,
      "stateMutability": "nonpayable",
      "type": "function"
    }
  ],
  "bytecode": "0x608060405234801561001057600080fd5b5060016000803373ffffffffffffffffffffffffffffffffffffffff1673ffffffffffffffffffffffffffffffffffffffff16815260200190815260200160002060006101000a81548160ff02191690831515021790555033600160006101000a81548173ffffffffffffffffffffffffffffffffffffffff021916908373ffffffffffffffffffffffffffffffffffffffff160217905550610ef6806100b86000396000f3fe608060405260043610610107576000357c0100000000000000000000000000000000000000000000000000000000900463ffffffff16806302d05d3f1461010c57806312065fe014610163578063162790551461018e5780631785f53c146101f7578063188ec3561461024857806324d7806c146102735780633ccfd60b146102dc57806342cbb15c146102f3578063704802751461031e57806371f1c7b21461036f57806391b7f5ed1461038657806395c64b04146103c157806398d5fdca146103f0578063a0712d681461041b578063a0a2b57314610449578063a1e7084314610484578063a8c3c850146104c1578063b6db75a0146104fc578063ee92d4841461052b575b600080fd5b34801561011857600080fd5b5061012161055a565b604051808273ffffffffffffffffffffffffffffffffffffffff1673ffffffffffffffffffffffffffffffffffffffff16815260200191505060405180910390f35b34801561016f57600080fd5b50610178610584565b6040518082815260200191505060405180910390f35b34801561019a57600080fd5b506101dd600480360360208110156101b157600080fd5b81019080803573ffffffffffffffffffffffffffffffffffffffff1690602001909291905050506105a3565b604051808215151515815260200191505060405180910390f35b34801561020357600080fd5b506102466004803603602081101561021a57600080fd5b81019080803573ffffffffffffffffffffffffffffffffffffffff1690602001909291905050506105b6565b005b34801561025457600080fd5b5061025d6106e6565b6040518082815260200191505060405180910390f35b34801561027f57600080fd5b506102c26004803603602081101561029657600080fd5b81019080803573ffffffffffffffffffffffffffffffffffffffff1690602001909291905050506106f0565b604051808215151515815260200191505060405180910390f35b3480156102e857600080fd5b506102f1610745565b005b3480156102ff57600080fd5b50610308610860565b6040518082815260200191505060405180910390f35b34801561032a57600080fd5b5061036d6004803603602081101561034157600080fd5b81019080803573ffffffffffffffffffffffffffffffffffffffff16906020019092919050505061086a565b005b34801561037b57600080fd5b5061038461099a565b005b34801561039257600080fd5b506103bf600480360360208110156103a957600080fd5b8101908080359060200190929190505050610a3b565b005b3480156103cd57600080fd5b506103d6610ac1565b604051808215151515815260200191505060405180910390f35b3480156103fc57600080fd5b50610405610ad8565b6040518082815260200191505060405180910390f35b6104476004803603602081101561043157600080fd5b8101908080359060200190929190505050610ae2565b005b34801561045557600080fd5b506104826004803603602081101561046c57600080fd5b8101908080359060200190929190505050610ca6565b005b34801561049057600080fd5b506104bf600480360360208110156104a757600080fd5b81019080803515159060200190929190505050610d2c565b005b3480156104cd57600080fd5b506104fa600480360360208110156104e457600080fd5b8101908080359060200190929190505050610dc5565b005b34801561050857600080fd5b50610511610e4b565b604051808215151515815260200191505060405180910390f35b34801561053757600080fd5b50610540610e5b565b604051808215151515815260200191505060405180910390f35b6000600160009054906101000a900473ffffffffffffffffffffffffffffffffffffffff16905090565b60003073ffffffffffffffffffffffffffffffffffffffff1631905090565b600080823b905060008111915050919050565b6105be610e4b565b1515610632576040517f08c379a00000000000000000000000000000000000000000000000000000000081526004018080602001828103825260138152602001807f43616c6c6572206973206e6f742041646d696e0000000000000000000000000081525060200191505060405180910390fd5b60008060008373ffffffffffffffffffffffffffffffffffffffff1673ffffffffffffffffffffffffffffffffffffffff16815260200190815260200160002060006101000a81548160ff0219169083151502179055508073ffffffffffffffffffffffffffffffffffffffff163373ffffffffffffffffffffffffffffffffffffffff167fdb9d5d31320daf5bc7181d565b6da4d12e30f0f4d5aa324a992426c14a1d19ce60405160405180910390a350565b6000600354905090565b60008060008373ffffffffffffffffffffffffffffffffffffffff1673ffffffffffffffffffffffffffffffffffffffff16815260200190815260200160002060009054906101000a900460ff169050919050565b61074d610e4b565b15156107c1576040517f08c379a00000000000000000000000000000000000000000000000000000000081526004018080602001828103825260138152602001807f43616c6c6572206973206e6f742041646d696e0000000000000000000000000081525060200191505060405180910390fd5b60006107cb61055a565b905060003073ffffffffffffffffffffffffffffffffffffffff163190508173ffffffffffffffffffffffffffffffffffffffff166108fc829081150290604051600060405180830381858888f1935050505015801561082f573d6000803e3d6000fd5b507fd8b7f4bb2039c9b48d880e35ed6f97af88652cdd5070f403bb6eacd26eb6e9dd60405160405180910390a15050565b6000600254905090565b610872610e4b565b15156108e6576040517f08c379a00000000000000000000000000000000000000000000000000000000081526004018080602001828103825260138152602001807f43616c6c6572206973206e6f742041646d696e0000000000000000000000000081525060200191505060405180910390fd5b60016000808373ffffffffffffffffffffffffffffffffffffffff1673ffffffffffffffffffffffffffffffffffffffff16815260200190815260200160002060006101000a81548160ff0219169083151502179055508073ffffffffffffffffffffffffffffffffffffffff163373ffffffffffffffffffffffffffffffffffffffff167fbf3f493c772c8c283fd124432c2d0f539ab343faa04258fe88e52912d36b102b60405160405180910390a350565b6109a2610e4b565b1515610a16576040517f08c379a00000000000000000000000000000000000000000000000000000000081526004018080602001828103825260138152602001807f43616c6c6572206973206e6f742041646d696e0000000000000000000000000081525060200191505060405180910390fd5b6000610a2061055a565b90508073ffffffffffffffffffffffffffffffffffffffff16ff5b610a43610e4b565b1515610ab7576040517f08c379a00000000000000000000000000000000000000000000000000000000081526004018080602001828103825260138152602001807f43616c6c6572206973206e6f742041646d696e0000000000000000000000000081525060200191505060405180910390fd5b8060048190555050565b6000600160149054906101000a900460ff16905090565b6000600454905090565b610aea610e98565b1515610b5e576040517f08c379a00000000000000000000000000000000000000000000000000000000081526004018080602001828103825260098152602001807f546f6f206561726c79000000000000000000000000000000000000000000000081525060200191505060405180910390fd5b80610b67610ad8565b0234141515610bde576040517f08c379a00000000000000000000000000000000000000000000000000000000081526004018080602001828103825260168152602001807f496e73756666696369656e74206b6c61792073656e740000000000000000000081525060200191505060405180910390fd5b610be7336105a3565b151515610c5c576040517f08c379a00000000000000000000000000000000000000000000000000000000081526004018080602001828103825260118152602001807f436f6e747261637420646574656374656400000000000000000000000000000081525060200191505060405180910390fd5b7f762f5484f5389e3176ea16e4e9827b0c1876a9be11a46199e1e6bef7bb1a42e842438360405180848152602001838152602001828152602001935050505060405180910390a150565b610cae610e4b565b1515610d22576040517f08c379a00000000000000000000000000000000000000000000000000000000081526004018080602001828103825260138152602001807f43616c6c6572206973206e6f742041646d696e0000000000000000000000000081525060200191505060405180910390fd5b8060038190555050565b610d34610e4b565b1515610da8576040517f08c379a00000000000000000000000000000000000000000000000000000000081526004018080602001828103825260138152602001807f43616c6c6572206973206e6f742041646d696e0000000000000000000000000081525060200191505060405180910390fd5b80600160146101000a81548160ff02191690831515021790555050565b610dcd610e4b565b1515610e41576040517f08c379a00000000000000000000000000000000000000000000000000000000081526004018080602001828103825260138152602001807f43616c6c6572206973206e6f742041646d696e0000000000000000000000000081525060200191505060405180910390fd5b8060028190555050565b6000610e56336106f0565b905090565b6000610e6561055a565b73ffffffffffffffffffffffffffffffffffffffff163373ffffffffffffffffffffffffffffffffffffffff1614905090565b6000610ea2610ac1565b15610eb957610eaf610860565b4310159050610ec7565b610ec16106e6565b42101590505b9056fea165627a7a723058202aa12b9212e3317343b35ab0c18da4ce46e7de2aaab494692adf3d24616f39e90029",
  "source": "pragma solidity ^0.5.0;\r\n\r\nimport \"./Admin.sol\";\r\n\r\ncontract nftExample is Admin {\r\n    bool blockBased;\r\n    uint256 _blockNumber;\r\n    uint256 _timestamp;\r\n    uint256 _price;\r\n\r\n    event Withdrawn();\r\n    event Success(uint256 timestamp, uint256 blockNumber, uint256 amount);\r\n\r\n    constructor() public {}\r\n\r\n    function mint(uint256 amt) external payable {\r\n        require(condition(), \"Too early\");\r\n        require(msg.value == getPrice() * amt, \"Insufficient klay sent\");\r\n        require(!isContract(msg.sender), \"Contract detected\");\r\n\r\n        emit Success(block.timestamp, block.number, amt);\r\n    }\r\n\r\n    function condition() private view returns (bool) {\r\n        if (getBlockBased()) return block.number >= getBlockNumber();\r\n        else return block.timestamp >= getTimestamp();\r\n    }\r\n\r\n    function isContract(address addr) public view returns (bool) {\r\n        uint256 size;\r\n        assembly {\r\n            size := extcodesize(addr)\r\n        }\r\n        return size > 0;\r\n    }\r\n\r\n    function getBlockBased() public view returns (bool) {\r\n        return blockBased;\r\n    }\r\n\r\n    function setBlockBased(bool flag) external onlyAdmin {\r\n        blockBased = flag;\r\n    }\r\n\r\n    function setPrice(uint256 price) external onlyAdmin {\r\n        _price = price;\r\n    }\r\n\r\n    function getPrice() public view returns (uint256) {\r\n        return _price;\r\n    }\r\n\r\n    function setBlockNumber(uint256 blockNumber) external onlyAdmin {\r\n        _blockNumber = blockNumber;\r\n    }\r\n\r\n    function getBlockNumber() public view returns (uint256) {\r\n        return _blockNumber;\r\n    }\r\n\r\n    function setTimestamp(uint256 timestamp) external onlyAdmin {\r\n        _timestamp = timestamp;\r\n    }\r\n\r\n    function getTimestamp() public view returns (uint256) {\r\n        return _timestamp;\r\n    }\r\n\r\n    function getBalance() external view returns (uint256) {\r\n        return address(this).balance;\r\n    }\r\n\r\n    function withdraw() external onlyAdmin {\r\n        address payable addr = creator();\r\n        uint256 balance = address(this).balance;\r\n\r\n        addr.transfer(balance);\r\n        emit Withdrawn();\r\n    }\r\n\r\n    function SUICIDE() external onlyAdmin {\r\n        address payable addr = creator();\r\n        selfdestruct(addr);\r\n    }\r\n}\r\n",
  "sourcePath": "/home/kyusang/Desktop/ContractMinter/MinterV2/contracts/nftExample.sol",
  "compiler": {
    "name": "solc",
    "version": "0.5.0+commit.1d4f565a.Emscripten.clang"
  },
  "schemaVersion": "3.4.7",
  "updatedAt": "2022-05-22T20:53:48.655Z",
  "devdoc": {
    "methods": {}
  },
  "userdoc": {
    "methods": {}
  }
}